:10053000023B0000024B019002510000024D0000FE
:1005400002430000043500000000043140A0000018
:10055000042B0000000002390000023D0000023FB1
:100560000000024100000227000002230000024FA9
:10057000000002450000022F0000022900000225B1
:02058000000079
:1005BE00E4FDFCC3ED9FEC9E5025E4FBEBC394C819
:1005CE007480948050030B80F3E4FBEBC394667449
:0F05DE0080948050030B80F30DBD00010C80D47E
:0105ED0022EB
:05000600C295D2942216
:05000E00D292C2932212
:0806AD008E458F468C4F8D50E5
:0506B500D295C2942261
:05001600C292D293220A
:1002E900E4F508F50930000885554D85564E800B13
:1002F900C3E49556F54EE49555F54D300108852131
:1003090043852244800BC3E49522F544E49521F505
:1003190043C3E550954EF540E54F954DF53FC3E58F
:10032900469544F542E5459543F541E53E25E0FF0F
:10033900E53D33FEC3E5409FFFE53F9EFEE53A2FCD
:10034900FDE5393EFCE4120221AB2EAA2DA92CA809
:100359002B120116C004C005C006C007AC3FAD4052
:10036900E4120221AB34AA33A932A831120116D002
:1003790003D002D001D00012002512025A8E088F34
:1003890009E53E25E0FFE53D33FEC3E5429FFFE574
:10039900419EFEE53A2FFDE5393EFCE4120221AB10
:1003A9002EAA2DA92CA82B120116C004C005C0061F
:1003B900C007AC41AD42E4120221AB34AA33A932E1
:1003C900A831120116D003D002D001D000120025A5
:1003D90012025AE509252AF52AE5083529F529EFF2
:1003E9002526F526EE3525F525C3E52A9414E529B4
:1003F90064809480500DC3E5269414E525648094A7
:1004090080400D752500752614752900752A14225A
:10041900C3E52A94ECE5296480947F400CE5269491
:10042900ECE5256480947F500C7525FF7526EC75E5
:0504390029FF752AEC0B
:01043E00229B
:10068B008E458F468C4F8D5012000612000E0202C3
:01069B00E975
:0906BA001206AD1200160202E95D
:10069C008C4F8D508E458F461200161200060202AA
:0106AC00E964
:0906C3001206AD12000E0202E95C
:0506CC00C296C2972256
:10065D00C3E530952AE5296480F8E52F648098502C
:07066D0003D29622C296227F
:10067400C3E5309526E5256480F8E52F648098501D
:0706840003D29722C2972266
:030003000205EE05
:1005EE00C0E00528E5287002052720900CD20005F2
:1005FE0052E552700E0551800AC200E55215527036
:06060E00021551D0E0329C
:03001300020614CE
:10061400C0E00524E5247002052330910CD20105C5
:1006240054E554700E0553800AC201E55415547004
:06063400021553D0E03274
:03000B0002058368
:10058300C0E0C0D075D000C0000530E53070020572
:100593002FC28C758CFC758A1812065D120674C303
:1005A300E5309414E52F648094804006752F007520
:0B05B3003000D28CD000D0D0D0E0325D
:03001B0002063AA0
:10063A00C28E758DD8758BF0D28E85275585285632
:10064A0075270075280085232185242275230075C6
:03065A0024003247
:1004CB00758911758DD8758BF0758CFF758A9CD2DB
:1004DB00A9D28CD2ABD28ED288D28AD2A8D2AAD2AF
:1004EB00AF20801020820D7D0C7C007F0C7E0012D3
:1004FB00068B80ED30801020820D7D0D7C007F0CF3
:10050B007E001206C380DA30821020800D7D0D7CB8
:10051B00007F0C7E0012069C80C73082C43080C1E5
:05052B001206CC80BCAB
:10001E000202C6E86480F8E933E83360110460F048
:10002E00ED33EC337009E8FCE9FDEAFEEBFF220448
:10003E0060DED3EB9FEA9EE99DE8C2E78CF0C2F743
:10004E0095F0400CE8CCF8E9CDF9EACEFAEBCFFB0F
:10005E0012029185D0F05804700320D5B3E80470D5
:10006E00075002B2D50202D092D5EC0460F7E4CC70
:10007E00C0E0C398F8603B94186008400DD0E0FBD8
:10008E000202A8E4FBFAC9FC8028E830E406E4C9C1
:10009E00FBE4CAFCE830E305E4C9CACBFCE854072C
:1000AE006010F8C3E913F9EA13FAEB13FBEC13FC37
:1000BE00D8F130F52FC3E49CFCEF9BFFEE9AFEEDDA
:1000CE0099FDD0E0FBEF4E4D4C701222DB03020285
:1000DE00CDEC2CFCEF33FFEE33FEED33FDED30E7D0
:1000EE00EB0202A8EF2BFFEE3AFEED39FDD0E0FB5E
:1000FE0050130BBB00030202D0ED13FDEE13FEEF07
:08010E0013FFEC13FC0202A830
:10011600EC4D6011E8497017ED33EC3304600DE4E3
:10012600FCFFFEFD22E933E8330470F80202C61232
:10013600029158046009E4CC248150062850090233
:1001460002D02840030202CDC0E0EB4A7044B980D9
:1001560006D0E0FB0202BCEF4E701CBD8008EBFF30
:10016600EAFEE9FD80EBE98DF0A4FEE5F00201FF71
:10017600E9CDF9EAFEEBFFEF89F0A4FCE5F0CE89C4
:10018600F0A42EFFE435F0CD89F0A42DFEE435F081
:100196008067EF4E7005BD80D780C3EF8BF0A4ACAF
:1001A600F0EE8BF0A42CFCE435F0F8EF8AF0A42CEA
:1001B600E5F038FCE433CB8DF0A42CFCE5F03BF8FD
:1001C600EE8AF0A42CFCE5F038F8E433CF89F0A4ED
:1001D6002CFCE5F038CF3400CE89F0A42FFFE5F0F3
:1001E6003EFEE433C98DF0A42EFEE5F039CD8AF04B
:1001F600A42FFFE5F03EFEE43DFD33D0E0FB5007C3
:100206000BBB000F0202D0EC2CFCEF33FFEE33FEEB
:06021600ED33FD0202A819
:10021C0075F020800E75F010800575F0087D007E5D
:10022C00007F003392D530D5031202DBEC33401043
:10023C00EF33FFEE33FEED33FDEC33FCD5F0ED2266
:0E024C00E5F0247EA2D513CC92E7CDCEFF22A2
:10025A00EDD2E7CD33EC3392D524814006E4FFFE9C
:10026A00FDFC22FCE4CFCECDCC24E0501174FF80FB
:10027A00EDC3CC13CCCD13CDCE13CECF13CF047098
:07028A00F030D5DE0202DBBB
:10029100E9D2E7C933E833F892D5EDD2E7CD33ECB3
:0702A10033FC5002B2D5222C
:1002A800EC30E7100FBF000C0EBE00080DBD0004B7
:1002B8000BEB6014A2D5EB13FCED92E7FD2274FF63
:1002C800FCFDFEFF22E480F8A2D574FF13FC7D80BC
:0302D800E480EFD0
:0300000002043FB8
:0C043F00787FE4F6D8FD75815602048633
:0E02DB00C3E49FFFE49EFEE49DFDE49CFC2234
:10044B000204CBE493A3F8E493A34003F68001F2F8
:10045B0008DFF48029E493A3F85407240CC8C333B2
:10046B00C4540F4420C8834004F456800146F6DF81
:10047B00E4800B0102040810204080900530E47EDC
:10048B00019360BCA3FF543F30E509541FFEE49376
:10049B00A360010ECF54C025E060A840B8E493A33D
:1004AB00FAE493A3F8E493A3C8C582C8CAC583CA68
:1004BB00F0A3C8C582C8CAC583CADFE9DEE780BE20
:010582000078
:00000001FF
